:080000000C94E4010C94870F3D
:040010000C94C6176F
:040024000C94E80F41
:04002C000C947F0CA5
:140054008A1F0000003F0000803F0000803F0000C842002008
:140068002020202020202020303030303020202020202020B4
:14007C00202020202020202020202090404040404040404080
:14009000404040404040400C0C0C0C0C0C0C0C0C0C40404064
:1400A400404040400909090909090101010101010101010108
:1400B800010101010101010101014040404040400A0A0A0A82
:1400CC000A0A020202020202020202020202020202020202E8
:1400E0000202404040402000000000000000000000000000E8
:1400F4000000000000000000000000000000000000000000F8
:140108000000000000000000000000000000000000000000E3
:14011C000000000000000000000000000000000000000000CF
:140130000000000000000000000000000000000000000000BB
:140144000000000000000000000000000000000000000000A7
:14015800000000000000000000000000000000286E756C6CB0
:14016C0020707472207061737365642900696E746567657252
:14018000206F6E6C79207072696E74662C2073656C6563740A
:140194002050726F6A6563742D3E4F7074696F6E732D3E544A
:1401A80061726765742C224650207072696E74662220746F74
:1401BC00207072696E7420666C6F6174696E6720706F696E98
:1401D00074206E756D626572733E00970001000000000000B5
:1401E40000000000000001006400000001000102030405068C
:1401F8000708090000000000000000000000000000000000DB
:14020C0000000000000000000E1F1F1F1F1F1F1F0E1F111F9A
:140220001F1F1F1F0E1F1111111F1F1F0E1F11111111111FF0
:140234000000000000000500000000000000000000000000B1
:140248000000000000000000000000000001000000000000A1
:14025C00000000000000000000014144433720566C61756571
:1402700020202564200D00313030302A7573762F68202575EA
:14028400200D000A007573762A31303020202575200D00759A
:1402980073762A3130303020202575200D00446F7365207359
:1402AC00657420746F207A65726F2C577269746520746F2028
:1402C000454550524F4D00577269746520746F204545505208
:1402D4004F4D00454550524F4D20524420444F5345207553C9
:1402E800765F4C3136283929202575200D00454550524F4D41
:1402FC0020524420444F5345207553765F48313628372920D9
:140310002575200D00454550524F4D2052442046756E635395
:14032400656C656374283629202564200D00454550524F4D93
:14033800205244206D6F64283529202564200D004545505213
:14034C004F4D2052442069734175746F4F66664261636B55D5
:14036000704C4544283429202564200D007573696E67204162
:140374006C61726D5468726573686F6C6428322920256420D0
:140388000D00454550524F4D20524420416C61726D5468729B
:14039C006573686F6C64283229202564200D00666C61736867
:1403B000205244207043504D32755356482028312920256430
:0303C400200D0009
:1403C800CFE5D4E0CDBFDEBFCE51D0400AEA08830024ECE4EE
:1403DC00F2E012E0E13DF10711F00192FBCF0083EBEDF1E0A9
:1403F000A0E6B0E013E000E00BBFE73CF10721F0C8953196F6
:140404000D92F9CF0E94820DFFCF0E94DF19580105E010E0B6
:1404180095010E947C195801B694A794B694A79444275527B9
:14042C0002C04F5F5F4F4A155B05D8F30C94E4190E94E919D3
:14044000442755270BC06627772702C06F5F7F4F6537E4E00D
:140454007E07D0F34F5F5F4F4017510790F30C94EE198FEF99
:140468008ABB87BB84BB81BB22242DB8DE9AAE98D99888BBE1
:14047C00DA9A05E010E0C5DFDA98222428BADB9A02E310E09B
:14049000BEDFDB988FEF88BBDC9A02E310E0B7DFDC988FEFB4
:1404A40082BBDF9A02E310E0B0DFDF9808950E94E919442707
:1404B80055270BC06627772702C06F5F7F4F6537E4E07E077B
:1404CC00D0F34F5F5F4F4017510790F30C94EE19AA92A02E1A
:1404E000D89AD99ADA98D898D998A5BA01E010E0E0DFDA9A6D
:1404F40001E010E0DCDFDA98A9900895AA92A02ED898D99A33
:14050800DA98D89AD998A5BA01E010E0CEDFDA9A01E010E068
:14051C00CADFDA98A99008954A936A9360E444270CC0062F50
:14053000040FD4DF89E990E0E42FFF27E80FF91F0081DEDF89
:140544004395483090F36991499108954A936A9368E44427CE
:140558000CC0062F040FBEDF81EA90E0E42FFF27E80FF91FBB
:14056C000081C8DF4395483090F36991499108954A936A9335
:1405800060E544270CC0062F040FA8DF89EA90E0E42FFF2700
:14059400E80FF91F0081B2DF4395483090F3699149910895EE
:1405A8004A936A9368E544270CC0062F040F92DF81EB90E04C
:1405BC00E42FFF27E80FF91F00819CDF4395483090F369911A
:1405D000499108958FEF84BB222425BAD09AD29AD19A04E198
:1405E40010E065DF08E378DF0AE010E060DF08E373DF0AE04D
:1405F80010E05BDF08E36EDF08E36CDF08E06ADF01E068DFFE
:14060C0006E066DF0CE064DF87DF9CDFB1DFC6CF0E94F319CC
:14062000A22E602F4E815F81AA2021F4062F005855DF09C04F
:14063400062F005451DF05C0FA0100815FDF4F5F5F4FFA0123
:1406480020802220B9F70C94FA190E94011AC22E402FAE800F
:14065C00CC2021F4042F00583BDF03C0042F005437DF0A2D4D
:1406700047DF0C94081A4A93402F2197413031F485E788837D
:14068400222706E0E4DF05C08DE68883222706E0DEDF21968A
:1406980049910895219720908800222069F086E790E0E22D60
:1406AC00FF27E80FF91F8081805D888322270027CADF05C03E
:1406C00080E2888322270027C4DF20908900222069F086E765
:1406D40090E0E22DFF27E80FF91F8081805D8883222701E04B
:1406E800B4DF05C080E28883222701E0AEDF86E790E0E09134
:1406FC008A00FF27E80FF91F8081805D8883222702E0A1DF97
:140710008EE28883222703E09CDF86E790E0E0918B00FF27B4
:14072400E80FF91F8081805D8883222704E08FDF86E790E051
:14073800E0918C00FF27E80FF91F8081805D8883222705E064
:14074C0082DF83E58883222707E07DDF86E78883222708E090
:1407600078DF8FE28883222709E073DF88E6888322270AE082
:140774006EDF21960895219720908000222069F086E790E070
:14078800E22DFF27E80FF91F8081805D8883222700275BDF86
:14079C0005C080E288832227002755DF20908100222069F0A7
:1407B00086E790E0E22DFF27E80FF91F8081805D88832227E2
:1407C40001E045DF05C080E28883222701E03FDF2090820070
:1407D800222069F086E790E0E22DFF27E80FF91F8081805D73
:1407EC008883222702E02FDF05C080E28883222702E029DF50
:1408000020908300222069F086E790E0E22DFF27E80FF91FF5
:140814008081805D8883222703E019DF05C080E28883222748
:1408280003E013DF20908400222069F086E790E0E22DFF2706
:14083C00E80FF91F8081805D8883222704E003DF05C080E27A
:140850008883222704E0FDDE86E790E0E0918500FF27E80F91
:14086400F91F8081805D8883222705E0F0DE86E790E0E09135
:140878008600FF27E80FF91F8081805D8883222706E0E3DED8
:14088C0086E790E0E0918700FF27E80FF91F8081805D888365
:1408A000222707E0D6DE83E48883222708E0D1DE80E588839E
:1408B400222709E0CCDE8DE4888322270AE0C7DE80E2888393
:1408C80022270BE0C2DE21960895219720908000222069F071
:1408DC0086E790E0E22DFF27E80FF91F8081805D88832227B5
:1408F0000027AFDE05C080E2888322270027A9DE20908100E6
:14090400222069F086E790E0E22DFF27E80FF91F8081805D45
:140918008883222701E099DE05C080E28883222701E093DE52
:14092C0020908200222069F086E790E0E22DFF27E80FF91FC9
:140940008081805D8883222702E083DE05C080E288832227B3
:1409540002E07DDE20908300222069F086E790E0E22DFF2772
:14096800E80FF91F8081805D8883222703E06DDE05C080E2E5
:14097C008883222703E067DE20908400222069F086E790E03F
:14099000E22DFF27E80FF91F8081805D8883222704E057DEC4
:1409A40005C080E28883222704E051DE86E790E0E0918500DE
:1409B800FF27E80FF91F8081805D8883222705E044DE86E750
:1409CC0090E0E0918600FF27E80FF91F8081805D8883222749
:1409E00006E037DE86E790E0E0918700FF27E80FF91F8081FD
:1409F400805D8883222707E02ADE83E48883222708E025DE29
:140A080080E58883222709E020DE8DE4888322270AE01BDE92
:140A1C0080E2888322270BE016DE21960895219707D080E2EC
:140A3000888321E00EE00DDE21960895219720908800222047
:140A440069F086E790E0E22DFF27E80FF91F8081805D88833B
:140A580022270027FADD05C080E2888322270027F4DD209020
:140A6C008900222069F086E790E0E22DFF27E80FF91F808130
:140A8000805D8883222701E0E4DD05C080E28883222701E033
:140A9400DEDD86E790E0E0918A00FF27E80FF91F8081805DA8
:140AA8008883222702E0D1DD8EE28883222703E0CCDD86E799
:140ABC0090E0E0918B00FF27E80FF91F8081805D8883222753
:140AD00004E0BFDD86E790E0E0918C00FF27E80FF91F808182
:140AE400805D8883222705E0B2DD83E58883222707E0ADDD2C
:140AF80086E78883222708E0A8DD8FE28883222709E0A3DD8E
:140B0C0088E6888322270AE09EDD219608950E94F1182197F7
:140B200081E488832227002794DD83E48883222701E08FDD68
:140B340083E48883222702E08ADD85E58883222703E085DDA6
:140B48008DE48883222704E080DD85E58883222705E07BDD98
:140B5C008CE48883222706E076DD81E48883222707E071DD9A
:140B700084E58883222708E06CDD85E48883222709E067DD99
:140B840084E4888322270AE062DD80E2888322270BE05DDD9D
:140B980084E4888322270CE058DD8FE4888322270DE053DD88
:140BAC0083E5888322270EE04EDD85E4888322270FE049DD8E
:140BC00009811A812B813C8102D0259608950E94F1180E941C
:140BD400E9192F9789EB90E0FE01319606E010E0FA93EA93BB
:140BE8009A938A930E94781A80E08F83888789878A8780E079
:140BFC008B878C878D878E87209160003091610001E010E093
:140C10000E947C191801442455242B863C864D865E862B84C6
:140C24003C844D845E8443E650E060E070E05A924A923A92CC
:140C38002A928A019B010E948C1940E15EE060E070E03A93C2
:140C4C002A931A930A938A019B010E948C192B883C884D88D3
:140C60005E88201631064206530608F0A8C02091600030915A
:140C7400610004E210E00E947C191801442455246B887C880D
:140C88008D889E8844E650E060E070E09A928A927A926A92E3
:140C9C008A019B010E948C195A924A923A922A920E941219B9
:140CB0000F83188729873A874AE050E060E070E00F81188577
:140CC40029853A857A936A935A934A930E94141909834AE056
:140CD80050E060E070E00F81188529853A857A936A935A93B7
:140CEC004A930E9412194AE050E060E070E07A936A935A9369
:140D00004A930E9414190A8344E650E060E070E00F8118858F
:140D140029853A857A936A935A934A930E9412194AE050E063
:140D280060E070E07A936A935A934A930E9414190B8348EEC0
:140D3C0053E060E070E00F81188529853A857A936A935A934F
:140D50004A930E9412194AE050E060E070E07A936A935A9304
:140D64004A930E9414190C8340E157E260E070E00F81188529
:140D780029853A857A936A935A934A930E9412194AE050E0FF
:140D8C0060E070E07A936A935A934A930E9414190D8340EA66
:140DA00056E861E070E00F81188529853A857A936A935A93DF
:140DB4004A930E9412190E839BC0209160003091610004E27C
:140DC80010E00E947C191801442455240B891C892D893E8940
:140DDC005A924A923A922A920E9412190F83188729873A8744
:140DF0004AE050E060E070E00F81188529853A857A936A9361
:140E04005A934A930E94141909834AE050E060E070E00F813B
:140E1800188529853A857A936A935A934A930E9412194AE0F1
:140E2C0050E060E070E07A936A935A934A930E9414190A83C2
:140E400044E650E060E070E00F81188529853A857A936A9310
:140E54005A934A930E9412194AE050E060E070E07A936A93FF
:140E68005A934A930E9414190B8348EE53E060E070E00F81C6
:140E7C00188529853A857A936A935A934A930E9412194AE08D
:140E900050E060E070E07A936A935A934A930E9414190C835C
:140EA40040E157E260E070E00F81188529853A857A936A93AC
:140EB8005A934A930E9412194AE050E060E070E07A936A939B
:140ECC005A934A930E9414190D8340EA56E861E070E00F8160
:140EE000188529853A857A936A935A934A930E9412190E83C2
:140EF4002B843C844D845E8443E650E060E070E05A924A9217
:140F08003A922A928A019B010E948C1940E15EE060E070E0F0
:140F1C003A932A931A930A938A019B010E948C192B883C8808
:140F30004D885E88201631064206530608F04EC086E790E001
:140F4400EE81FF27E80FF91F8081805D888321E005E07DDBCE
:140F580086E790E0ED81FF27E80FF91F8081805D888321E01B
:140F6C0006E071DB8EE2888321E007E06CDB86E790E0EC814B
:140F8000FF27E80FF91F8081805D888321E008E060DB86E7AE
:140F940090E0EB81FF27E80FF91F8081805D888321E009E065
:140FA80054DB86E790E0EA81FF27E80FF91F8081805D8883A0
:140FBC0021E00AE048DB86E790E0E981FF27E80FF91F808196
:140FD000805D888321E00BE03CDB4DC086E790E0EE81FF27A3
:140FE400E80FF91F8081805D888321E005E02FDB86E790E034
:140FF800ED81FF27E80FF91F8081805D888321E006E023DB74
:14100C0086E790E0EC81FF27E80FF91F8081805D888321E067
:1410200007E017DB86E790E0EB81FF27E80FF91F8081805D87
:14103400888321E008E00BDB8EE2888321E009E006DB86E71B
:1410480090E0EA81FF27E80FF91F8081805D888321E00AE0B0
:14105C00FADA86E790E0E981FF27E80FF91F8081805D888347
:1410700021E00BE0EEDA85E7888321E00CE0E9DA809175000B
:14108400813059F483E5888321E00DE0E0DA86E7888321E0C6
:141098000EE0DBDA0AC080E2888321E00DE0D5DA80E2888360
:1410AC0021E00EE0D0DA2F960E94EE19249608950E94E9192E
:1410C000219780916200853079F080917500813031F480E215
:1410D400888322270EE0BBDA05C08CE4888322270EE0B5DA2B
:1410E80080916200813059F480E2888322270CE0ACDA80E2F9
:1410FC00888322270DE0A7DA32C080916200833019F461E0B8
:1411100070E002C06627772780916200863019F441E050E007
:1411240002C0442755271B01242A352A222011F4332059F062
:1411380082E4888322270CE088DA80E2888322270DE083DA9B
:14114C000EC080916200853051F080E2888322270CE079DA63
:1411600080E2888322270DE074DA8DE4888321E000276FDA9D
:141174004091620055274130E0E05E07C9F04230E0E05E07D2
:14118800D9F04330E0E05E07E9F04430E0E05E0721F14530F9
:14119C00E0E05E0759F14630E0E05E0769F14730E0E05E073F
:1411B00079F133C081E3888321E001E04ADA2DC082E38883FC
:1411C40021E001E044DA27C083E3888321E001E03EDA80E263
:1411D800888321E00EE039DA1CC084E3888321E001E033DAB9
:1411EC0080E2888321E00EE02EDA11C085E3888321E001E065
:1412000028DA0BC086E3888321E001E022DA05C087E3888381
:1412140021E001E01CDA86E4888321E002E017DA40916F0065
:1412280055274130E0E05E07A1F04230E0E05E0751F14330C3
:14123C00E0E05E0709F435C04430E0E05E0709F440C045307C
:14125000E0E05E0709F44FC061C081E3888321E003E0F7D915
:1412640080916200813031F480E2888322270FE0EED952C0AF
:1412780080916200853009F44DC081E4888322270FE0E3D9CC
:14128C0047C082E3888321E003E0DDD980E2888322270EE099
:1412A000D8D980E2888322270FE0D3D937C083E3888321E0CF
:1412B40003E0CDD980E2888322270EE0C8D980E288832227A2
:1412C8000FE0C3D927C084E3888321E003E0BDD98091620041
:1412DC008530F1F080E2888322270EE0B4D980E28883222781
:1412F0000FE0AFD913C085E3888321E003E0A9D98091620054
:14130400853051F080E2888322270EE0A0D980E2888322270C
:141318000FE09BD921960C94EE19219720E137E2009171002C
:14132C00109172000E94F81800938D0020E137E200917100AC
:14134000109172000E94F61828EE33E00E94F81800938E00DA
:1413540020E137E200917100109172000E94F61828EE33E07D
:141368000E94F61824E630E00E94F81800938F0020E137E2B9
:14137C0000917100109172000E94F61828EE33E00E94F618BF
:1413900024E630E00E94F6182AE030E00E94F8180093900090
:1413A40020E137E200917100109172000E94F61828EE33E02D
:1413B8000E94F61824E630E00E94F6182AE030E00E94F618DD
:1413CC000093910020908D00222071F086E790E0E091880033
:1413E000FF27E80FF91F8081805D88832227002730D905C09D
:1413F40080E28883222700272AD920908E00222071F086E7B7
:1414080090E0E0918900FF27E80FF91F8081805D88832227FF
:14141C0001E019D905C080E28883222701E013D986E790E0C4
:14143000E0918F00FF27E80FF91F8081805D8883222702E05F
:1414440006D98EE28883222703E001D986E790E0E091900056
:14145800FF27E80FF91F8081805D8883222704E0F4D886E7FC
:14146C0090E0E0919100FF27E80FF91F8081805D8883222793
:1414800005E0E7D883E58883222707E0E2D886E78883222796
:1414940008E0DDD88FE28883222709E0D8D888E68883222787
:1414A8000AE0D3D880E2888322270BE0CED880E2888322279E
:1414BC000DE0C9D880E2888322270EE0C4D881E48883222795
:1414D0000FE0BFD8219608954A93402F2197413099F580E2C9
:1414E400888321E004E0B3D880E2888321E005E0AED883E538
:1414F800888321E006E0A9D881E4888321E007E0A4D886E42F
:14150C00888321E008E09FD885E4888321E009E09AD884E527
:14152000888321E00AE095D889E5888321E00BE090D880E225
:14153400888321E00CE08BD880E2888321E00DE086D832C09D
:1415480080E2888321E004E080D880E2888321E005E07BD83F
:14155C0084E4888321E006E076D881E4888321E007E071D832
:141570008EE4888321E008E06CD887E4888321E009E067D81E
:1415840085E4888321E00AE062D882E5888321E00BE05DD827
:1415980081E2888321E00CE058D881E2888321E00DE053D82D
:1415AC0021964991089582E085BF8BB780648BBF8A98929A99
:1415C00078940895B89AC09ABB9AC39A08950E940F1AA02EDA
:1415D400C398442711C068B3617009F4C09A613009F4C09843
:1415E800CC2401C0C394CA14E8F3002711270E9459024395FA
:1415FC00483C68F3C39A0C94181A002329F4C09A222420923B
:14161000650004C081E080936500C09808958D9A8BE18EBDF1
:1416240082E88FBD8FE390E097BD86BD8EE19BBD8ABD0895D8
:1416380080E88FBF89B7816089BF83B7856083BF8DE382BF6D
:14164C00089580E88FBF2224332430926800209267000895BA
:1416600085B5866085BD222424BC89B7806489BF80E88FBFCC
:14167400332430926B0020926A0008950895B998C19ABA988A
:14168800C29A08950E94F319442766B36670663009F4C0C03A
:14169C000AE010E00E945902663009F4B9C0222420926300FC
:1416B00080916400813009F0ACC077276030670709F498C0AA
:1416C4006230E0E07E0709F464C06430E0E07E0709F09DC0EB
:1416D80020906F00822D823099F0833089F0853079F080919A
:1416EC0062008F5F8093620087E020906200821508F089C0D4
:1417000081E08093620085C080916F008230D1F422242092CB
:1417140073008CE396E8A1E0B0E02090710030907200442495
:14172800552482159305A405B5050CF46EC0C10101969093F8
:14173C0072008093710067C080916F008330A1F422242092BC
:1417500073008AE090E020907100309072008215930508F0BE
:1417640056C0C101019790937200809371004FC080916F0059
:14177800853009F04AC080917500813021F4222420927500EC
:14178C0042C081E0809375003EC080916F008F5F80936F0070
:1417A00086E020906F00821518F481E080936F0080916F00AA
:1417B400823021F481E090E05C0102C0AA24BB2480916F003D
:1417C800833019F461E070E002C0662777271501262A372A08
:1417DC00222011F4332021F022242092730013C02224209218
:1417F00074000FC080916200853041F480916F00853021F4FB
:1418040082E080936E0003C081E080936E0008EC10E00E94C2
:14181800590241E0042F0C94FA19222426B887E087B980E827
:14182C0088B980EC86B90895AA92BA92A02E8AB38F738ABB45
:141840008BB38F738BBB222427B827B02A2827B880E886B93A
:14185400369A349BFECFA4B0BB2425B1332700E011E00E943E
:141868007C19A00EB11E8501B990A99008950E94F3195801AE
:14187C0015014424552440E251EA67E070E05A924A923A92D9
:141890002A928A019B010E94181941E050E060E070E0180194
:1418A4002901241A350A460A570A510122242AB82BB886E80D
:1418B80080BDA9B81501232C332420BC88E98AB980E88FBF7C
:1418CC00899A0C94FA195D9BFECF0CB95E9BFECF5E9A08954D
:1418E000AA92BA92580104C0F50101915F01F1DFF501208001
:1418F4002220C1F7B990A99008952A923A928A939A93EA9378
:14190800FA932FB62A9257982090AA023324822D8F5F80934B
:14191C00AA0286E992E0E22DFF27E80FF91F2CB0208281E007
:141930008093AB02579A29902FBEF991E9919991899139903B
:1419440029901895F894E199FECF1FBB0EBB2DBBE29AE19AD4
:1419580078940895AA92E199FECF1FBB0EBBE09AADB20A2D9C
:14196C00A99008950E940F1AB901A801CB019070A82ECB01F5
:14198000892F99279070C82E282F8A01DDDF2A2D8A010F5FF7
:141994001F4FD8DF0C94181A3A932A930E94D419A8018FEF08
:1419A80090E0A0E0B0E02A843B844C845D84282239224A227C
:1419BC005B22A22C88E090E00A851B852C853D858A930E9493
:1419D0006C1A180129018FEF90E0A0E0B0E0282239224A222B
:1419E4005B22C22C8FEF90E0A0E0B0E02A843B844C845D8468
:1419F800120144245524282239224A225B22E22C88E190E072
:141A0C000A851B852C853D858A930E946C1A180129018FEF1E
:141A200090E0A0E0B0E0282239224A225B22622D222D8A013B
:141A340089DF2E2D8A010F5F1F4F84DF2C2D8A010E5F1F4F52
:141A48007FDF2A2D8A010D5F1F4F7ADF0E94C919229608953E
:141A5C000E94011AA8018A017BDFC02E8A010F5F1F4F76DF81
:141A7000A02E2C2D332700E011E00E947C1918014A2C5524D1
:141A8400240C351C510181010C94081A0E94D619C22EE02EA8
:141A98002297AA84488959899A0102E010E064DF2E2D04E0B1
:141AAC0010E04CDF2C2D05E010E048DF2A2D06E010E044DF66
:141AC0002C843D844E845F8448825982910107E010E064DF9B
:141AD40022960C94C019D39AD49A0895002311F4DB9801C0F9
:141AE800DB9A0895002329F4DC9822242092640004C0DC9A8E
:141AFC0081E0809364000895609780E0888789878A878B87C8
:141B100080E08C878D878E878F8782ED94E05C017EDD0EE185
:141B240010E00E9459020E94EA024ADDA8DDD3DF3EDD80E059
:141B38008093B2028093B3028093B4028093B50200E815E298
:141B4C0094DE01E0C7DF01E0CBDF84DD6FDD87E990E0909351
:141B60006100809360001C013982288220E332E00CE412E024
:141B74000E94941F0CE412E0B1DE02E010E06CDF1093720065
:141B8800009371001801398228822FE032E00CE412E00E9422
:141B9C00941F0CE412E09EDE80917100909172008233E0E09A
:141BB0009E0730F482E390E090937200809371002090710049
:141BC400309072003982288222EF31E00CE412E00E94941F1D
:141BD8000CE412E081DE04E010E0BCDE00937500202E33249D
:141BEC00398228822DEC31E00CE412E00E94941F0CE412E03D
:141C00006FDE05E010E0AADEA02EA09262002A2C332439825C
:141C1400288227EB31E00CE412E00E94941F0CE412E05CDE9C
:141C280006E010E097DEA02EA0926F002A2C332439822882DC
:141C3C002AE931E00CE412E00E94941F0CE412E049DE07E049
:141C500010E004DF5801150144245524288639864A865B863F
:141C6400288439844A845B84288239824A825B822BE731E025
:141C78000CE412E00E94941F0CE412E02DDE09E010E0E8DE95
:141C8C0058011501442455242C863D864E865F862C843D8455
:141CA0004E845F84288239824A825B822CE531E00CE412E069
:141CB4000E94941F0CE412E011DE288439844A845B8440E0C0
:141CC80051E060E070E05A924A923A922A928A019B010E942E
:141CDC008C1940E051E060E070E03A932A931A930A938A010F
:141CF0009B010E948C192C843D844E845F84200E311E421EFA
:141D0400531E3092B3022092B2025092B5024092B402F8C0A4
:141D180020907400222009F097C0809162008130B9F40E948E
:141D2C001E058091EA00813021F401E00E943B0303C0002714
:141D40000E943B032091B4023091B5020091B2021091B30235
:141D54000E94E705809162008230B9F40E941E058091EA005B
:141D6800813021F401E00E943B0303C000270E943B03209165
:141D7C00B4023091B5020091B2021091B3020E94E7058091EB
:141D90006200833059F40E94BD0380916D00813019F4002718
:141DA40099DB02C001E096DB80916200843059F40E94690420
:141DB80080916D00813019F400278ADB02C001E087DB809139
:141DCC006200853051F42091B4023091B5020091B2021091E2
:141DE000B3020E948D05809162008630B1F40E94150580916B
:141DF400EA00813021F401E00E943B0303C000270E943B03A0
:141E080080916D00813019F4002762DB02C001E05FDB809138
:141E1C0062008730C1F40E944E038091EA00813021F401E04F
:141E30000E943B0303C000270E943B0380916D00813019F4B8
:141E4400002748DB04C001E045DB01C068DA34D91BDCA02EA6
:141E5800002309F455C081E08093DA0080916E00813009F5C5
:141E6C0020907100309072003F822E824090B4025090B50281
:141E80002090B2023090B3022A823B824C825D8220906F0040
:141E940028822091620000917500F8DD0CE411E01DDD222481
:141EA80020926E002DC080916E00823049F580E08093B20283
:141EBC008093B3028093B4028093B502209071003090720064
:141ED0003F822E824090B4025090B5022090B2023090B30297
:141EE4002A823B824C825D8220906F00288220916200009167
:141EF8007500CADD0BE211E0EFDC222420926E0007CF6096DF
:141F0C0008950A921A922A923A924A925A926A927A928A9268
:141F20009A920A931A932A933A938A939A93AA93BA93EA935C
:141F3400FA930FB60A920E94F3198091C4009091C5000196AB
:141F48009093C5008093C40080916200813021F481E090E0BC
:141F5C005C0102C0AA24BB2480916200833019F461E070E0E1
:141F700002C06627772780916200863019F441E050E002C027
:141F8400442755271501262A372A242A352A222011F4332054
:141F980011F008EC18DB0E94FA1909900FBEF991E991B991E4
:141FAC00A99199918991399129911991099199908990799090
:141FC000699059904990399029901990099018950A921A9299
:141FD4002A923A924A925A926A927A928A929A920A931A930F
:141FE8002A933A938A939A93AA93BA93EA93FA930FB60A921C
:141FFC000E94D4198DE382BF8091C0009091C1000196909324
:14201000C1008093C0008039E1E09E0708F4B2C622243324F8
:142024003092C1002092C0008091C2009091C3000196909342
:14203800C3008093C2008730E0E09E0708F46EC02090CE0038
:14204C003090CF003092D1002092D0002090CC003090CD00D3
:142060003092CF002092CE002090CA003090CB003092CD00C7
:142074002092CC002090C8003090C9003092CB002092CA00D0
:142088002090C6003090C7003092C9002092C8002090C400CE
:14209C003090C5003092C7002092C600222433243092C50086
:1420B0002092C4002090C8003090C9002091C6003091C700A6
:1420C400220D331D2090CA003090CB00220D331D2090CC0089
:1420D8003090CD00220D331D2090CE003090CF00220D331D5C
:1420EC002090D0003090D100220D331D01E010E00E947C1948
:142100001801442455243092D5002092D4005092D700409229
:14211400D60087E090E09093C3008093C200C7C18091C200F4
:142128009091C3008130E0E09E07B9F482E090E09093C70040
:14213C008093C600222433243092C5002092C4008FE080939A
:14215000D40080E08093D5008093D6008093D700A8C1809112
:14216400C2009091C3008230E0E09E0771F52090C60030900E
:14217800C7003092C9002092C8002090C4003090C5003092CC
:14218C00C7002092C600222433243092C5002092C4002090B6
:1421A000C8003090C9004090C6005090C700420C531C440C90
:1421B400551C1201442455243092D5002092D4005092D700DC
:1421C8004092D60072C18091C2009091C3008330E0E09E0759
:1421DC0009F03CC02090C8003090C9003092CB002092CA00F0
:1421F0002090C6003090C7003092C9002092C8002090C40065
:142204003090C5003092C7002092C600222433243092C5001C
:142218002092C4002090C8003090C9004090C6005090C700FE
:14222C00420C531C2090CA003090CB00420C531C440C551C5E
:142240001201442455243092D5002092D4005092D7004092EE
:14225400D6002DC18091C2009091C3008430E0E09E0709F0E9
:1422680050C02090CA003090CB003092CD002092CC00209090
:14227C00C8003090C9003092CB002092CA002090C6003090BE
:14229000C7003092C9002092C8002090C4003090C5003092B3
:1422A400C7002092C600222433243092C5002092C40020909D
:1422B800C8003090C9002091C6003091C700220D331D209093
:1422CC00CA003090CB00220D331D2090CC003090CD00220DF2
:1422E000331D369527953695279506E010E00E947C19180166
:1422F400442455243092D5002092D4005092D7004092D60077
:14230800D4C08091C2009091C3008530E0E09E0709F05FC044
:14231C002090CC003090CD003092CF002092CE002090CA0019
:142330003090CB003092CD002092CC002090C8003090C90000
:142344003092CB002092CA002090C6003090C7003092C900F4
:142358002092C8002090C4003090C5003092C7002092C600FD
:14236C00222433243092C5002092C4002090C8003090C900C2
:142380000091C6001091C700020D131D2090CA003090CB0046
:14239400020D131D2090CC003090CD00020D131D2090CE0030
:1423A8003090CF00020D131D25E030E00E94F818980106E00D
:1423BC0010E00E947C191801442455243092D5002092D400CF
:1423D0005092D7004092D6006CC08091C2009091C3008630FF
:1423E400E0E09E0709F063C02090CE003090CF003092D100C4
:1423F8002092D0002090CC003090CD003092CF002092CE0035
:14240C002090CA003090CB003092CD002092CC002090C80032
:142420003090C9003092CB002092CA002090C6003090C70019
:142434003092C9002092C8002090C4003090C5003092C7000D
:142448002092C600222433243092C5002092C4002090C800F6
:14245C003090C9004090C6005090C700420C531C2090CA006F
:142470003090CB00420C531C2090CC003090CD00420C531C4A
:142484002090CE003090CF00420C531C2090D0003090D10069
:14249800420C531C1201442455243092D5002092D400509280
:1424AC00D7004092D60048E656E362E070E04090D60050901E
:1424C000D7002090D4003090D500241635064606570608F002
:1424D400FCC281E08093EA003092D5002092D4005092D70002
:1424E8004092D6004FE057E260E070E0241635064606570622
:1424FC0008F08CC022242092800020928100209282002092F7
:14251000830048EE53E060E070E02091D6003091D70000918B
:14252400D4001091D5007A936A935A934A930E941219009325
:14253800840048EE53E060E070E02091D6003091D700009162
:14254C00D4001091D5007A936A935A934A930E94141944E664
:1425600050E060E070E07A936A935A934A930E941219009373
:14257400850048EE53E060E070E02091D6003091D700009125
:14258800D4001091D5007A936A935A934A930E94141944E628
:14259C0050E060E070E07A936A935A934A930E9414194AE09E
:1425B00050E060E070E07A936A935A934A930E941219009323
:1425C400860048EE53E060E070E02091D6003091D7000091D4
:1425D800D4001091D5007A936A935A934A930E94141944E6D8
:1425EC0050E060E070E07A936A935A934A930E9414194AE04E
:1426000050E060E070E07A936A935A934A930E9414190093D0
:14261400870061C140E856E968E970E02091D6003091D700E2
:142628000091D4001091D5007A936A935A934A930E94121922
:14263C000093800040E856E968E970E02091D6003091D70050
:142650000091D4001091D5007A936A935A934A930E941419F8
:1426640040E452E46FE070E07A936A935A934A930E941219C8
:142678000093810040E856E968E970E02091D6003091D70013
:14268C000091D4001091D5007A936A935A934A930E941419BC
:1426A00040E452E46FE070E07A936A935A934A930E9414198A
:1426B40040EA56E861E070E07A936A935A934A930E94121978
:1426C8000093820040E856E968E970E02091D6003091D700C2
:1426DC000091D4001091D5007A936A935A934A930E9414196C
:1426F00040E452E46FE070E07A936A935A934A930E9414193A
:1427040040EA56E861E070E07A936A935A934A930E94141925
:1427180040E157E260E070E07A936A935A934A930E94121922
:14272C000093830040E856E968E970E02091D6003091D7005C
:142740000091D4001091D5007A936A935A934A930E94141907
:1427540040E452E46FE070E07A936A935A934A930E941419D5
:1427680040EA56E861E070E07A936A935A934A930E941419C1
:14277C0040E157E260E070E07A936A935A934A930E941419BC
:1427900048EE53E060E070E07A936A935A934A930E9412199B
:1427A4000093840040E856E968E970E02091D6003091D700E3
:1427B8000091D4001091D5007A936A935A934A930E9414198F
:1427CC0040E452E46FE070E07A936A935A934A930E9414195D
:1427E00040EA56E861E070E07A936A935A934A930E94141949
:1427F40040E157E260E070E07A936A935A934A930E94141944
:1428080048EE53E060E070E07A936A935A934A930E94141920
:14281C0044E650E060E070E07A936A935A934A930E9412191D
:142830000093850040E856E968E970E02091D6003091D70055
:142844000091D4001091D5007A936A935A934A930E94141902
:1428580040E452E46FE070E07A936A935A934A930E941419D0
:14286C0040EA56E861E070E07A936A935A934A930E941419BC
:1428800040E157E260E070E07A936A935A934A930E941419B7
:1428940048EE53E060E070E07A936A935A934A930E94141994
:1428A80044E650E060E070E07A936A935A934A930E9414198F
:1428BC004AE050E060E070E07A936A935A934A930E9412197D
:1428D0000093860022242092870002E610E00E94581A180157
:1428E40029012091D6003091D7000091D4001091D5000E941A
:1428F800421B380149010EE510E00E94581AA801B901009101
:14290C006000109161000E94371B3A932A931A930A938A0102
:142920009B010E94E91C830194010E947A1B810192010E9459
:14293400DE1C1093DD000093DC003093DF002093DE0022242D
:14294800209266000AE510E00E94581A8CED90E09A938A933D
:14295C000E94D41C0E94051B1093E1000093E0003093E30076
:142970002093E2004AE050E060E070E03A932A931A930A9300
:142984008A019B010E948C191093E7000093E6003093E90022
:142998002093E800D7D24090D6005090D7002090D400309046
:1429AC00D5004AE050E060E070E05A924A923A922A928A017D
:1429C0009B010E948C194090B4025090B5022090B2023090DF
:1429D400B302200E311E421E531E3092B3022092B20250922D
:1429E800B5024092B40281019201E1D14090DE005090DF0068
:1429FC002090DC003090DD0006E510E00E94581A3A932A9325
:142A10001A930A93810192010E94FA1A0E94051B1093E50053
:142A24000093E40020E137E20E94F8180093880020E137E226
:142A38000091E4001091E5000E94F61828EE33E00E94F81804
:142A4C000093890020E137E20091E4001091E5000E94F61895
:142A600028EE33E00E94F61824E630E00E94F81800938A00A0
:142A740020E137E20091E4001091E5000E94F61828EE33E060
:142A88000E94F61824E630E00E94F6182AE030E00E94F818F4
:142A9C0000938B0020E137E20091E4001091E5000E94F61843
:142AB00028EE33E00E94F61824E630E00E94F6182AE030E055
:142AC4000E94F61800938C005BC122242092EA004090D6008B
:142AD8005090D7002090D4003090D5004AE050E060E070E030
:142AEC005A924A923A922A928A019B010E948C194090B40292
:142B00005090B5022090B2023090B302200E311E421E531E03
:142B14003092B3022092B2025092B5024092B40248EE53E046
:142B280060E070E02091D6003091D7000091D4001091D5000F
:142B3C007A936A935A934A930E9412191093D5000093D40005
:142B50003093D7002093D60048EE53E060E070E07A936A934B
:142B64005A934A930E9412190093800048EE53E060E070E0BA
:142B78002091D6003091D7000091D4001091D5007A936A9345
:142B8C005A934A930E94141944E650E060E070E07A936A93A8
:142BA0005A934A930E9412190093810048EE53E060E070E07D
:142BB4002091D6003091D7000091D4001091D5007A936A9309
:142BC8005A934A930E94141944E650E060E070E07A936A936C
:142BDC005A934A930E9414194AE050E060E070E07A936A9358
:142BF0005A934A930E9412190093820048EE53E060E070E02C
:142C04002091D6003091D7000091D4001091D5007A936A93B8
:142C18005A934A930E94141944E650E060E070E07A936A931B
:142C2C005A934A930E9414194AE050E060E070E07A936A9307
:142C40005A934A930E9414190093830002E610E00E94581AE5
:142C5400180129012091D6003091D7000091D4001091D5002F
:142C68000E94421B380149010EE510E00E94581AA801B9017C
:142C7C0000916000109161000E94371B3A932A931A930A9389
:142C90008A019B010E94E91C830194010E947A1B81019201FD
:142CA4000E94DE1C1093DD000093DC003093DF002093DE005E
:142CB8001801290106E510E00E94581A3A932A931A930A9302
:142CCC00810192010E94FA1A0E94051B1093E5000093E40068
:142CE00020E137E20E94F8180093880020E137E20091E4006A
:142CF4001091E5000E94F61828EE33E00E94F818009389009F
:142D080020E137E20091E4001091E5000E94F61828EE33E0C9
:142D1C000E94F61824E630E00E94F81800938A0020E137E2F0
:142D30000091E4001091E5000E94F61828EE33E00E94F6180B
:142D440024E630E00E94F6182AE030E00E94F81800938B00C7
:142D580020E137E20091E4001091E5000E94F61828EE33E079
:142D6C000E94F61824E630E00E94F6182AE030E00E94F6180F
:142D800000938C000E94C91909900FBEF991E991B991A991AE
:142D94009991899139912991199109919990899079906990DB
:142DA80059904990399029901990099018950E94F1180E9497
:142DBC000F1A649780E0888789878A878B8780E08C838D83BE
:142DD0008E838F838AE08C8780E08D878E878F8784E2888B37
:142DE40080E0898B8A8B8B8B209160003091610001E010E038
:142DF8000E947C191801442455242C823D824E825F822C80CC
:142E0C003D804E805F8043E650E060E070E05A924A923A92CB
:142E20002A928A019B010E948C1940E15EE060E070E03A93B8
:142E34002A931A930A938A019B010E948C192C8C3D8C4E8CBA
:142E48005F8C201631064206530608F043C02C803D804E804B
:142E5C005F80088919892A893B895A924A923A922A920E94E7
:142E70008C19180129016C8C7D8C8E8C9F8C0C851D852E853A
:142E84003F859A928A927A926A920E948C195A924A923A924B
:142E98002A920E941219088719872A873B87288439844A84C4
:142EAC005B843092E7002092E6005092E9004092E8002882C3
:142EC00039824A825B822CE131E00CE412E00E94941F0CE455
:142ED40012E00E94700C33C0209160003091610004E210E0DE
:142EE8000E947C191801442455240C8D1D8D2E8D3F8D5A92EF
:142EFC004A923A922A920E941219088719872A873B87288443
:142F100039844A845B843092E7002092E6005092E900409265
:142F2400E800288239824A825B822EE031E00CE412E00E9400
:142F3800941F0CE412E00E94700C64960E94181A24960895AD
:142F4C000E94F118AA92BA9224970CE011E00E94700C2E80DA
:142F60003F8048845984288239824A825B822CEF30E00CE4CC
:142F740012E00E94941F0CE412E00E94700C2496B990A990C6
:142F8800249608950A921A922A923A924A925A926A927A923E
:142F9C008A929A920A931A932A933A938A939A93AA93BA9331
:142FB000EA93FA930FB60A920E94E919229780916A009091A9
:142FC4006B00019690936B0080936A008C33E0E09E0708F4CC
:142FD800EAC080916F00823019F461E070E002C0662777277E
:142FEC0080916F00833019F441E050E002C0442755271B017B
:14300000242A352A222011F4332021F081E08093740003C0B9
:14301400222420927400809173008A3018F48F5F809373007E
:1430280080917300863038F080916F00843019F081E0809381
:14303C006F008CED90E000917100109172000E94371B9A93F2
:143050008A930E94041D24F481E080936D0003C022242092D8
:143064006D0080916D00813011F584E120906600821520F094
:14307800822D8F5F8093660085E020906600821580F080919B
:14308C006F00843099F020906500222021F401E00E94030B87
:1430A0000BC000270E94030B07C000270E94030B03C00027F2
:1430B4000E94030B80916C008F5F282E20926C00863108F4C6
:1430C8004DC007E00E941A0C1093D3000093D2001801398289
:1430DC0028822BEE30E00CE412E00E94941F0CE412E00E9452
:1430F000700C8CE093E02090D2003090D3008215930538F401
:143104002224288221E00FE00E94290326C08AED92E020908A
:14311800D2003090D3008215930538F481E0888321E00FE087
:14312C000E94290316C08FE892E02090D2003090D300821556
:14314000930538F482E0888321E00FE00E94290306C083E063
:14315400888321E00FE00E942903222420926C0080916300C6
:14316800883768F48F5F8093630001E00E94760D809163005A
:14317C008C3389F40E94EA020EC080EF80936300809175003C
:14319000813021F400270E94760D03C001E00E94760D22240A
:1431A400332430926B0020926A0022960E94EE1909900FBEB0
:1431B800F991E991B991A9919991899139912991199109916F
:1431CC00999089907990699059904990399029901990099025
:1431E00018953A932A931A930A930895689401C0E894EA9208
:1431F400FA928A93EE24FF2480E1000F111FEE1CFF1CE2162C
:14320800F30618F0E21AF30A03958A95A1F716F40E2D1F2DD8
:14321C008991F990E9900895E89401C0689430D0CC2409C0F3
:14323000E89401C068942AD037FD0E942A1AB7FD52D07724CC
:1432440088249924AA24BB2442D0C1F045D0B1F0E8E2000F0E
:14325800111F221F331F771C881C991CAA1CBB1C88169906D9
:14326C00AA06BB0628F0881A990AAA0ABB0A0395EA9559F7A0
:1432800026F4082D192D2A2D3B2D13C07A928A929A92AA9283
:14329400BA92CA92EA938A939A93AA93BA938B859C85AD85CA
:1432A800BE85C32E0EF0CB260895C7FC0E942A1AB991A99125
:1432BC0099918991E991C990B990A990999089907990249660
:1432D0000895E02FE12BE22BE32B0895E82FE92BEA2BEB2B24
:1432E400089580959095A095B0958F5F9F4FAF4FBF4F089500
:1432F8000A921A928A939A93029FC001129F900D039F900D41
:14330C008C01999189911990099008950E94331A7A920E9460
:143320004C1A59F177240E94521A19F48C019D0124C00A9288
:143334001A92089FB02CA12C289F902C812C189FA00C911C49
:14334800871C099FA00C911C871C199F900C811C0A9F900CF4
:14335C00811C389F800C299F800C1A9F800C0B9F800C1990E5
:1433700009900B2D1A2D292D382D79900C94411AA990B990F0
:14338400C990D990E990F990499159910895A990B990C99035
:14339800D990E990F990499159916991799108957A936A9347
:1433AC005A934A93FA92EA92DA92CA92BA92AA9208955A9361
:1433C0004A93BA92AA920895A990B9904991599108957A9307
:1433D4006A935A934A930895499159916991799108957A930F
:1433E8006A935A934A93BA92AA920895A990B990499159919F
:1433FC006991799108955A934A93DA92CA92BA92AA92089565
:14341000A990B990C990D9904991599108957A936A935A930C
:143424004A93DA92CA92BA92AA920895A990B990C990D99086
:14343800499159916991799108950A92C8950A923196C89562
:14344C00F02DE9910990099400951095209530950F5F1F4F0F
:143460002F4F3F4F08958A929A92AA92BA92EA938A939A9318
:14347400AA93BA9389859A85AB85BC850895B991A9919991D1
:143488008991E991B990A9909990899024960895EE27E02B61
:14349C00E12BE22BE32B0895EE27E82BE92BEA2BEB2B089554
:1434B000EA93FA930A92E02FF12FC895002D3196C895102D48
:1434C4003196C895202D3196C895302D0990F991E9910895C8
:1434D8000F920990002031F036952795179507950A94F8CF31
:1434EC000F900895AA93BA93EA93FA930A92AF81B885ED8185
:14350000FE810030010729F001900D9201501040F8CF0990B6
:14351400F991E991B991A99124960895689401C0E8940E94E9
:14352800631C0E94F51B09F448C0E62CD52CC42CB32EA22EA5
:14353C00912E802E00811181228133810E94F51B09F444C0F1
:14355000842D952D8C199D09B9F072F49095809501964C2C51
:143564005D2C8831B8F535952795179507950197D1F708C06E
:14357800883118F5B594A794979487940197D1F766242EF0A7
:14358C00080D191D2A1D3B1D09C0801A910AA20AB30A082DA5
:1435A000192D2A2D3B2D332322F40E942A1A80E8682E0E9420
:1435B4001E1C02C00E94531C0E94721C089500811181228173
:1435C8003381C6F70E94FD1BA9F380E83827F2CF082D192D25
:1435DC002A2D3B2D4C2C5D2C6E2C33233AF70E942A1A80E8AC
:1435F000682EE2CFFA93EA93EC2FFD2F32960E94921AE9919F
:14360400F991249608954A925A926A928A930E94051C11F12B
:143618005520E2F08FE14816C0F487E14816D1F058F441942D
:14362C0089EE481A05C035952795179507954A94D1F70EC0AA
:1436400087E1481A000F111F221F331F4A94D1F705C03FE749
:14365400232F132F032F04C0662011F00E942A1A8991699058
:14366800599049900895689401C0E8942227332746F017FDC9
:14367C00209517FD309503C0689401C0E8944A925A926A92EC
:143690008A9387E1482E5524662436F0332322F40E942A1AB0
:1436A40080E8682E0E941E1C89916990599049900895FA9339
:1436B800EA93EA81FB8127D0E991F99122960895FA93EA9340
:1436CC00EC2FFD2F32961DD0E991F99124960895FA93EA9389
:1436E000EA81FB8114D0E991F991398328831A930A930895B9
:1436F400FA93EA93EC2FFD2F329607D0E991F9913B832A8363
:143708001983088308950A921A922A923A920E94631C3A932B
:14371C002A931A930A9300811181228133810E94051C09F468
:1437300057C0E62CD52CC42CB32EA22E912E802E0991199109
:14374400299139910E94051CA1F16E244C185D0880E8481677
:1437580053060CF033C081E848168FEF58060CF436C080E21A
:14376C003324232E122E012E302F22271127002726941794C6
:14378000079437952795000F111F221F331F001C111C221CB9
:14379400331C28F0081819082A083B0804C0080C191C2A1CB1
:1437A8003B1C0AF001608A9551F70E941E1C0E94721C39901F
:1437BC0029901990099008950FEF102F2FE73FE7662099F3D6
:1437D0000E942A1AF0CF0027102F202F302FEBCF099119912E
:1437E40029913991EDCF0FD029F0662011F00E942A1A989400
:1437F8000895002329F4112319F4222309F433230895F7DF94
:14380C0099F08A93632E80E86822220F331F432E8FE7481AB3
:1438200055248827580A269530E8232B3327899198940895AC
:143834004424552466240895DEDF09F40895AA93BA93D201C4
:143848009A938A938EE790E0332349F03695279517950795DF
:14385C00A817B907CCF41196F5CF8095909501962223BAF0EE
:14387000000F111F221FA817B90714F01197F6CF0027112775
:1438840022273327899199912D01B991A991089533270FEFA2
:14389800102F2FE7322F899199912D0102C0AA93BA93A7DF22
:1438AC0049F0D201A158BF4F2D01342D220F3695279536294F
:1438C000B991A99108954A925A926A927A928A929A92AA927F
:1438D400BA92CA92DA92EA92FA928A939A9308959991899199
:1438E800F990E990D990C990B990A990999089907990699042
:1438FC005990499008950E94631CAA93BA930E94051CE1F119
:14391000E62CD52CC42CB32EA22E912E802E008111812281CC
:1439240033810E94051C71F16E244C0C5D1C80E84816530634
:1439380064F581E848168FEF58066CF1A29EB12DA02D919E08
:14394C00912D802DA09E800D911DA31FB31F829E800D911D94
:14396000A31FB31F929E900DA11DB31FA19E900DA11DB31FF6
:143974002B2F1A2F092F880F001F111F221F331F0E941E1C0F
:14398800B991A9910E94721C08950FEF102F2FE78FE7482E9B
:14399C00F5CF0027102F202F302FF0CFFA93EA93EA81FB818F
:1439B0000E94811CE991F99122960895FA93EA93EC2FFD2F1A
:1439C40032960E94811CE991F99124960895FA93EA93EC2F68
:1439D800FD2F32960E94811CE991F9913B832A831983088312
:1439EC0008950E94901A33233AF00E94FD1B11F001E0089525
:143A0000002708950FEF0895FA93EA93EA81FB810E94F71CAD
:143A1400E991F9912296002308950E94F1180E94D419422F77
:143A2800532FEE84FF84A42EB52EAA2059F4BB2049F480E3CC
:143A3C00EA85FB858083222421820E2F1F2F6CC04030E0E0B4
:143A50005E0784F48E2D9F2D8A30E0E09E0751F4CC24C39453
:143A64008A2D9B2D809590950196A82EB92E01C0CC246A85A1
:143A78007B852E2D3F2D0A2D1B2D0E94F618402F512F89E0EC
:143A8C0090E0801791074CF0842F952FC096E62FF72F81932F
:143AA0006E2F7F2F09C0842F952F895A9F4FE62FF72F819367
:143AB4006E2F7F2F2E2D3F2D0A2D1B2D0E94F818A02EB12E0E
:143AC800AA20B9F6BB20A9F6CC2031F08DE2E62FF72F81932C
:143ADC006E2F7F2F462E572E615070402224E42DF52D208216
:143AF000AA84BB8412C0EA2DFB2DC080E62FF72F2080EA2D12
:143B0400FB2D2192AE2EBF2E262E372E61507040E22DF32DC0
:143B1800C082A616B70658F30A851B850E94C9192496089589
:143B2C000E94D419C22ED32EA02EB12EEA84FB844A2D5B2D6C
:143B40002E2D3F2D0C2D1D2D0E94F618602F712F89E090E06F
:143B5400801791074CF0862F972FC096E42FF52F81934E2F59
:143B68005F2F09C0862F972F895A9F4FE42FF52F81934E2FDE
:143B7C005F2F2E2D3F2D0C2D1D2D0E94F818C02ED12ECC20D2
:143B9000B9F6DD20A9F6442E552E415050402224E42DF52D47
:143BA4002082CA2CDB2C12C0EC2DFD2DE080E42FF52F208022
:143BB800EC2DFD2D2192CE2EDF2E242E352E41505040E22D15
:143BCC00F32DE082C416D50658F30A2D1B2D0C94C91987E6F5
:143BE00090E0202E312E280E391EE22DF32DC895002D112736
:143BF4000270107008954A935A93402F512F042F152F0E945C
:143C0800EF1D0030010739F0042F152F015610400F5B1F4F45
:143C1C0002C0042F152F5991499108950E94F1180E94D419C0
:143C300024976A897B89442755275FC1E889F989808185321C
:143C440041F00081EE85FF850E94211A4F5F5F4F4DC186EB0B
:143C580092E0A82EB92E80E2C82E888999890196998B888BD0
:143C6C00E82FF92FE080FF248E2D9F2D8835E0E09E0709F4DC
:143C80006CC088E58E159F05A4F08E2D9F2D8534E0E09E0717
:143C940009F427C18534E0E09E070CF440C08E2D9F2D8335DA
:143CA800E0E09E0709F4C5C038C08E2D9F2D8336E0E09E0784
:143CBC0009F4ADC08436E0E09E0709F436C08536E0E09E0758
:143CD00009F409C18636E0E09E0709F404C18936E0E09E0712
:143CE40041F18F36E0E09E0709F435C08037E0E09E0709F465
:143CF80030C08336E0E09E0784F08E2D9F2D8337E0E09E0790
:143D0C0009F4BCC08537E0E09E0709F18837E0E09E07E9F012
:143D200000C0E889F9890081EE85FF850E94211A4F5F5F4F2B
:143D3400DDC06E5F7F4FE62FF72F3297E080F1808AE090E094
:143D4800998388832E2D3F2D0A2D1B2D0E940F1D5BC06E5F44
:143D5C007F4FE62FF72F3297E080F180E889F9898081853700
:143D700059F48AE090E0998388832E2D3F2D0A2D1B2D0E9409
:143D8400961D44C0E889F98980818F3659F488E090E099837A
:143D980088832E2D3F2D0A2D1B2D0E94961D34C0E889F9898A
:143DAC008081803741F480E3EA2DFB2D819388E78193AE2E01
:143DC000BF2E80E190E0998388832E2D3F2D0A2D1B2D0E9422
:143DD400961DE889F98980818835C1F486EB92E0A82EB92E22
:143DE8000EC0EA2DFB2D008111270E94FD1DEA2DFB2D008383
:143DFC008A2D9B2D0196A82EB92EEA2DFB2D2080222069F75F
:143E100086EB92E0A82EB92E47C06E5F7F4FE62FF72F329758
:143E2400208031802A82022DEE85FF850E94211A4F5F5F4F2E
:143E38005BC06E5F7F4FE62FF72F3297E080F1808C2D8D3273
:143E4C00B9F40DE2EE85FF850E94211A4F5F5F4F0FC0EE2DAC
:143E6000FF2DC895002DEE85FF850E94211A4F5F5F4F8E2DAD
:143E74009F2D0196E82EF92EEE2DFF2DC895002061F734C08A
:143E88006E5F7F4FE62FF72F3297A080B180AA2039F4BB2064
:143E9C0029F487E691E0E82EF92ED0CF8C2D8D32B1F40DE22F
:143EB000EE85FF850E94211A4F5F5F4F0EC0EA2DFB2D008140
:143EC400EE85FF850E94211A4F5F5F4F8A2D9B2D0196A82ECE
:143ED800B92EEA2DFB2D2080222069F705C089E791E0E82EB2
:143EEC00F92EACCF888999890196998B888BE889F98920808C
:143F0000222009F09BCE042F152F24960E94C91924960895FD
:143F1400E091CF02F091D0020193F093D002E093CF0208953A
:143F28000E94F118AA92BA9222972C803D803092D0022092EA
:143F3C00CF028C2F9D2F0896A82EB92EB982A8822E813F81EA
:143F500004E510E00E94141E2224E091CF02F091D002208233
:143F64002C803D800091CF021091D002021913092296B990D3
:063F7800A99024960895B3
:00000001FF
